:0400000007EF00F016
:0A0008002B8209ED04F050EF05F023
:100800000053544F500D00535452540D004F4B0D94
:1008100000000600D9CF1BF0DACF1CF0F6CF1DF098
:10082000F7CF1EF0F8CF1FF0F5CF20F09DAA1BEFF9
:1008300004F01DEF04F03FEF04F09EAA22EF04F055
:1008400024EF04F03FEF04F00D0E0C24D96EDA6AA9
:10085000000EDA22AECFDFFF0C2A040E0C6433EF59
:1008600004F035EF04F072EF04F0000E0C6E0D0E84
:10087000196E000E1A6ECBEC04F072EF04F09DA816
:1008800044EF04F046EF04F072EF04F09EA84BEF43
:1008900004F04DEF04F072EF04F09E980A0E0B6026
:1008A00054EF04F056EF04F064EF04F0010E0B2453
:1008B000D96EDA6A000EDA22DF50D8A462EF04F0B3
:1008C00064EF04F069EF04F0000E0B6EAC9A72EF67
:1008D00004F0010E0B24D96EDA6A000EDA22DF5022
:1008E000AD6E0B2A20C0F5FF1FC0F8FF1EC0F7FF3A
:1008F0001DC0F6FF1CC0DAFF1BC0D9FF2B921100F0
:10090000B9EF04F012C0D9FF13C0DAFFDF50D8B43A
:100910008CEF04F08EEF04F0A2EF04F012C0D9FFC8
:1009200013C0DAFFDF50186E14C0F6FF15C0F7FFD2
:100930000800F5501818D8B4A0EF04F0A2EF04F0A6
:10094000B5EF04F012C0D9FF13C0DAFFDF50186E04
:1009500014C0F6FF15C0F7FF0800F550185C126EC2
:10096000136AD8A01306CAEF04F0124A132A144AD5
:10097000152A1606D8A01706162806E11728D8A4A7
:10098000C4EF04F0C6EF04F082EF04F0000E136E23
:10099000000E126E120019C012F01AC013F0010EF0
:1009A000146E080E156E000E176E050E166E80EC96
:1009B00004F012501310D8A4E0EF04F0E2EF04F0BA
:1009C000EFEF04F081900D0E126E080E136E030E01
:1009D000146E12EC05F07CEC05F011EF05F019C077
:1009E00012F01AC013F0070E146E080E156E000EEA
:1009F000176E050E166E80EC04F012501310D8A47A
:100A000004EF05F006EF05F011EF05F081800D0E03
:100A1000126E080E136E030E146E12EC05F0EBEF5F
:100A200004F01200000E176E17501224156E000EFF
:100A30001320166E15C0F6FF16C0F7FF0800F5501C
:100A40000009D8B426EF05F028EF05F04FEF05F0C8
:100A50001450175CD8A02FEF05F031EF05F033EFFD
:100A600005F04FEF05F017501224156E000E1320FD
:100A7000166E15C0F6FF16C0F7FF010E1724D96ECB
:100A8000DA6A000EDA220800F5CFDFFF172A090E16
:100A900017644DEF05F04FEF05F014EF05F012006D
:100AA000380EF66E0B0EF76E000EF86E00EE21F0AB
:100AB00010EE0AF00900F5CFEEFFE550E150FAE143
:100AC00000EE01F0110EEE6AE806FDE12B902B928C
:100AD000000EF86E080EF76E000189EF05F0800E2B
:100AE000946E040EAC6E900EAB6E080EB86E000ED7
:100AF000B06E670EAF6E1200000E0B6E010E0B246F
:100B0000D96EDA6A000EDA22DF50AD6E0B2AAC8A9B
:100B1000120093EC05F06FEC05F0A1EC05F08FEFFF
:100B200005F007EF00F0C00EF26E000EF16E800EC1
:100B3000F06E300E9D6E1200746573745F7200006B
:080B40000000000E936E12008C
:020000040030CA
:0E000000000C1F1EFF8381FF0FC00FE00F409A
:00000001FF
